:100000000C9408020C9446130C941F130C946D135B
:100010000C946D130C946D130C9430020C943002FC
:100020000C9430020C9430020C9430020C94300288
:100030000C9430020C9430020C9430020C94300278
:100040000C94D5120C9430020C94A3120C947D12D3
:100050000C9430020C9430020C9430020C94300258
:100060000C9430020C94300200407A10F35A00A035
:10007000724E18090010A5D4E80000E87648170071
:1000800000E40B54020000CA9A3B000000E1F505B1
:10009000000080969800000040420F000000A086FB
:1000A00001000000102700000000E803000000002D
:1000B0006400000000000A000000000001000000D1
:1000C00000002C76D888DC674F0823DFC1DFAE59EB
:1000D000E1B1B796E5E3E453C63AE651997696E87E
:1000E000E6C28426EB898C9B62ED407C6FFCEFBC02
:1000F0009C9F40F2BAA56FA5F490055A2AF75C932D
:100100006B6CF9676DC11BFCE0E40D47FEF520E662
:10011000B500D0ED902E0300943577050080841E45
:10012000080000204E0A000000C80C333333330FA0
:10013000986E12831141EF8D2114893BE65516CF3D
:10014000FEE6DB18D1844B381BF77C1D901DA4BB49
:10015000E424203284725E228100C9F124ECA1E5FE
:100160003D275D0A00313E20002B434D54493A00A3
:100170002B434D54493A002200222C002B434C497A
:10018000503A002B434C49503A004552524F5200CE
:100190003A20617373657274696F6E206661696C71
:1001A00065642C2061626F727465642E000A524689
:1001B000343333726563762E6370703A000000004A
:1001C00000240027002A00000000080002010000AF
:1001D000030407000000000000000000010102000D
:1001E000010000016302FBFB12000000000400029A
:1001F000FBFB05000300000663000101070002FB92
:10020000FB090802FBFB0C020000000A0002FBFBDA
:100210000B000400000F000000000D0002FBFB0EAD
:10022000000500000F0006FBFB1006000101110095
:1002300002FBFB0102000000130002FBFB140000A4
:100240000101150002FBFB030241542B53415042B4
:10025000523D302C310D0057616974696E6720661C
:100260006F72207369676E616C0A002D002C002C80
:10027000002B434D47523A0041542B434D47523DCA
:1002800000416C61726D00414C41524D4500616C02
:1002900061726D6500416C61726D65004D616E6FDC
:1002A00062004D414E4F425249535441006D616EC0
:1002B0006F627269737461004D616E6F627269730F
:1002C00074610056656C6F63696461646500564DC6
:1002D000415800766D617800566D6178004D61700F
:1002E000006D6170006D617061004D61706100456D
:1002F00052524F52004F4B00220D0041542B43539A
:1003000054543D22004F4B0041542B434744434F2C
:100310004E543D312C224950222C220041542B4373
:10032000474154543D310D0041542B4349505354DF
:100330004152543D22544350222C223139332E3124
:1003400039332E3136352E3337222C22323637339D
:1003500031220D0041542B434950484541443D3121
:100360000D0041542B43494653520D0041542B4339
:10037000494943520D0041542B43495053454E4483
:100380000D0041542B43495053454E440D004154F8
:100390002B43495053454E440D0041542B43495083
:1003A00053454E440D004E656E68756D2064616462
:1003B0006F204750532063686567616E646F3A2011
:1003C000436865636172206C69676163616F0000F7
:1003D000000000230026002900000000002500285E
:1003E000002B0004040404040404040202020202B8
:1003F00002030303030303010204081020408001E9
:10040000020408102001020408102000E513192539
:1004100011241FBECFEFD8E0DEBFCDBF14E0A0E0B7
:10042000B1E0EAEBF0E602C005900D92AA30B10708
:10043000D9F726E0AAE0B4E001C01D92A834B207C3
:10044000E1F712E0C7E0D2E004C02197FE010E946C
:100450005E2CC630D107C9F70E94AB150C94503002
:100460000C94000081E0809398040895811528E0A1
:10047000920730F434E0969587953A95E1F7089520
:10048000811524E4920740F49850880F892F881F23
:10049000990B919580580895811524EB920730F4BB
:1004A0009454892F82958F70885008958FEF089506
:1004B0000895AF92BF92CF92DF92EF92FF920F9387
:1004C0001F93CF93DF936C017B018B01040F151FEA
:1004D000EB015E01AE18BF08C017D10759F0699152
:1004E000D601ED91FC910190F081E02DC6010995B6
:1004F000892B79F7C501DF91CF911F910F91FF9063
:10050000EF90DF90CF90BF90AF900895FC014481B1
:1005100055816081718189E994E00C945902FC0154
:10052000538D448D252F30E0842F90E0821B930B58
:10053000541710F0CF96089501970895FC01918DFE
:10054000828D981761F0A28DAE0FBF2FB11D5D9601
:100550008C91928D9F5F9F73928F90E008958FEFA3
:100560009FEF0895FC01918D828D981731F0828D57
:10057000E80FF11D858D90E008958FEF9FEF0895AE
:10058000FC01918D228D892F90E0805C9F4F821B12
:1005900091098F739927089589E994E00E94C00218
:1005A00021E0892B09F420E0822F0895FC01A48D1D
:1005B000A80FB92FB11DA35ABF4F2C91848D90E085
:1005C00001968F739927848FA689B7892C93A08968
:1005D000B1898C91837080648C93938D848D9813F2
:1005E00006C00288F389E02D80818F7D8083089585
:1005F000EF92FF920F931F93CF93DF93EC0181E073
:10060000888F9B8D8C8D98131AC0E889F989808119
:1006100085FF15C09FB7F894EE89FF896083E8894C
:10062000F98980818370806480839FBF81E090E03E
:10063000DF91CF911F910F91FF90EF900895F62ECB
:100640000B8D10E00F5F1F4F0F731127E02E8C8D65
:100650008E110CC00FB607FCFACFE889F9898081AA
:1006600085FFF5CFCE010E94D602F1CFEB8DEC0FC6
:10067000FD2FF11DE35AFF4FF0829FB7F8940B8FC7
:10068000EA89FB8980818062CFCF0F931F93CF933C
:10069000DF938C01D0E0C0E0F801EC0FFD1F649106
:1006A000662341F089E994E00E94F802892B11F059
:1006B0002196F2CFCE01DF91CF911F910F91089536
:1006C000682F89E994E00C94F802CF93DF93EC0152
:1006D000888D8823B9F0AA89BB89E889F9898C912A
:1006E00085FD03C0808186FD0DC00FB607FCF7CFE6
:1006F0008C9185FFF2CF808185FFEDCFCE010E94E6
:10070000D602E9CFDF91CF910895833081F028F4AC
:10071000813099F08230A9F008958730A9F08830AF
:10072000C9F08430B1F4809180008F7D03C0809146
:1007300080008F7780938000089584B58F7784BD83
:10074000089584B58F7DFBCF8091B0008F77809323
:10075000B00008958091B0008F7DF9CFCF93DF93E3
:10076000282F30E0F901E953FE4F8491F901E95057
:10077000FC4FD491F901ED51FC4FC491CC23A1F071
:1007800081110E948503EC2FF0E0EE0FFF1FE15373
:10079000FC4FA591B491EC91ED2381E090E009F438
:1007A00080E0DF91CF91089580E090E0FACF1F9331
:1007B000CF93DF93282F30E0F901E953FE4F849166
:1007C000F901E950FC4FD491F901ED51FC4FC4916E
:1007D000CC23A9F0162F81110E948503EC2FF0E0A5
:1007E000EE0FFF1FE752FC4FA591B4918FB7F8941D
:1007F000EC91111108C0D095DE23DC938FBFDF91FF
:10080000CF911F910895DE2BF8CFCF93DF9390E027
:10081000FC01E950FC4F24918D519C4FFC018491C7
:100820008823D1F090E0880F991FFC01E354FE4F1C
:10083000A591B491FC01E752FC4FC591D49161118F
:100840000EC09FB7F8948C91E22FE0958E238C9385
:100850002881E223E8839FBFDF91CF9108958FB76E
:10086000F894EC91E22BEC938FBFF6CF3FB7F8945E
:1008700080915A0490915B04A0915C04B0915D0456
:1008800026B5A89B05C02F3F19F00196A11DB11DEB
:100890003FBFBA2FA92F982F8827BC01CD01620F27
:1008A000711D811D911D42E0660F771F881F991FE2
:1008B0004A95D1F708950F931F930E943604009133
:1008C0004B0410914C0420914D0430914E046093E0
:1008D0004B0470934C0480934D0490934E04601B22
:1008E000710B820B930B6115710521E08207910555
:1008F00020F06FEF7FEF80E090E0685C7109810984
:10090000910921E0613E70468105910508F020E0E3
:100910006091690470916A048091690490916A04FD
:10092000880F991F90936A04809369044091690429
:1009300050916A04822F90E0422B592B50936A0405
:10094000409369042091670430916804820F931FDB
:100950009093680480936704809167049091680481
:10096000272F221F2227221F821B910990936804A0
:10097000809367041F910F9108958F929F92AF9279
:10098000BF92CF92DF92EF92FF924B015C010E94E7
:1009900036046B017C010E9436046C197D098E09B6
:1009A0009F09683E734081059105A8F321E0821AF2
:1009B0009108A108B10888EEC80E83E0D81EE11C9A
:1009C000F11C81149104A104B10429F7FF90EF9068
:1009D000DF90CF90BF90AF909F908F9008952FB7EA
:1009E000F894609156047091570480915804909146
:1009F00059042FBF08950F931F930E94EF04609333
:100A0000A1047093A2048093A3049093A40489E9A1
:100A100094E00E949E0297FF1DC00E94EF04009187
:100A2000A1041091A2042091A3043091A404601B9E
:100A3000710B820B930B00919D0410919E042091E9
:100A40009F043091A0046017710782079307F8F2A2
:100A50008FEF9FEF1F910F910895E82FF0E088230B
:100A600059F0813059F0EE0FFF1FE050FF4F80E446
:100A700095E0918380830895E898F5CFE998F3CFC6
:100A800008958230E8F4E82FF0E0EE0FFF1FE05009
:100A9000FF4F71836083813041F0809169008C7FCA
:100AA000482B40936900E89A089580916900837FFC
:100AB000440F551F440F551F482B40936900E99A76
:100AC00008958091770581110BC081E080937705AF
:100AD00041E050E06DE277E0809175050C944105AE
:100AE000089520916004309161042817390771F44A
:100AF00090915E0480915F04981741F0E0915E044C
:100B0000F0E0E55FFB4F808190E008958FEF9FEF6D
:100B100008950895EF92FF920F931F93CF93DF9361
:100B2000DC015C96ED90FC905D97E114F10479F4A2
:100B300081E090E013969C938E93129790E080E072
:100B4000DF91CF911F910F91FF90EF9008955196F3
:100B5000ED91FC91529750968C915097982F9095CB
:100B60000FB75E962C915E97122F127021FD609543
:100B7000F8942081112319F1282B2083E701219774
:100B8000F1F728E0462F50E0308160FF1AC0382B83
:100B90003083E7012197F1F7BA01759567952150E8
:100BA00089F7112381F08081892380830FBF5C96B0
:100BB0008D919C910197F1F781E090E0C1CF2923BD
:100BC000DCCF3923E5CF9081892BEFCF20916004D2
:100BD000309161042817390771F480915F042091E6
:100BE0005E0490E0805C9F4F821B910960E470E09E
:100BF0000E94092C089590E080E0089520916004FF
:100C00003091610428173907B9F490915E048091FE
:100C10005F04981789F0E0915E04F0E0E55FFB4F18
:100C2000808120915E0430E02F5F3F4F2F73332788
:100C300020935E0490E008958FEF9FEF089590E079
:100C400080E00895CF93DF93EC018A859B85AC8586
:100C5000BD858E839F83A887B9870E94EF046A832E
:100C60007B838C839D8381E089838883DF91CF910F
:100C70000895CF93DF93EC018E819F81A885B9857C
:100C80008A839B83AC83BD830E94EF046A877B8742
:100C90008C879D8781E089838883DF91CF91089538
:100CA00061E089E00E94D70368EC70E080E090E0AA
:100CB0000E94BD0460E089E00C94D703FC01019020
:100CC0000020E9F73197AF01481B590BBC0189E9B6
:100CD00094E00C9459028F929F92AF92BF920F931F
:100CE0001F93CF93DF93CDB7DEB7A1970FB6F894DC
:100CF000DEBF0FBECDBF19A2423008F44AE08E011C
:100D00000F5D1F4F842E912CB12CA12CA5019401B5
:100D10000E941D2CE62FB901CA01EA30F4F4E05D0F
:100D2000D801EE938D01232B242B252B79F790E00E
:100D300080E0109719F0CD010E945E06A1960FB6D3
:100D4000F894DEBF0FBECDBFDF91CF911F910F9101
:100D5000BF90AF909F908F900895E95CE1CF00978E
:100D600011F00C945E0690E080E00895EC018DEAAD
:100D700091E00E944503BE0190E080E04AE00E94BD
:100D80006B0680E991E00E9445038FE291E00E94AA
:100D90005E06FFCF0F93461720F086ED91E00E948C
:100DA000B606FC0135E0439FE00DF11D1124818161
:100DB0008B3F19F087ED91E0F2CF82818B3F19F0E4
:100DC00088ED91E0ECCF218302830F910895CF93BA
:100DD000DF93DC0114968C9114978F5F14968C939B
:100DE000149712969C911297981720F484E990E03A
:100DF0000E94B60613962C91139730E02115310509
:100E0000D9F04D915C911197E90121972250310958
:100E1000862F209741F0FA01E20FF31F9081892F6E
:100E2000881F8827881FFA01EC0FFD1F9081990FFA
:100E3000982B90839E01E2CFDF91CF910895DC0142
:100E4000ED91FC911197309721F48DE890E00E948C
:100E5000B60614961C9210820895BF92CF92DF922C
:100E6000EF92FF920F931F93CF93DF930E9436046C
:100E70000091510410915204209153043091540474
:100E800060935104709352048093530490935404DC
:100E900040915004442369F081E080934F04DF9136
:100EA000CF911F910F91FF90EF90DF90CF90BF9067
:100EB000089540914F04411138C06B017C01C01A64
:100EC000D10AE20AF30A81E0809350047894809179
:100ED00004010E94AE03BB24B394019709F0B12C26
:100EE000C6010E943602F82EC0913705D091380510
:100EF00085E0E82E209709F46AC08D810881198168
:100F00008E9D000D111D1124D801EC91E73008F0E1
:100F10004BC0F0E0E257F84F0C945E2C9B07AD07F6
:100F2000B007BC07C107C707C90710924F04C12CFF
:100F3000D12C7601C8CFF80182819181B916C8F011
:100F40008B15B8F0D80113968C912A813B818217BA
:100F5000130670F18BE293E029C081E08887F2CF1D
:100F600012968C91129711969C91F91610F08F158C
:100F700048F7F8018481E9CF8E819F810E941F0785
:100F8000E1CF60E08E819F810E94E706DBCF61E0C8
:100F9000F9CFEE81FF818481F8019281218182174E
:100FA00040F3981730F3CECF86E293E00E94B60666
:100FB0008D83E881F9818E9DE00DF11D11248081E2
:100FC000823008F09ACF0B84DC85C02D93CF10922D
:100FD000500465CF0F931F93CF93DF93FC010481DF
:100FE00015810115110539F4FB011082DF91CF91B4
:100FF0001F910F910895415051094017510708F46E
:101000008A01EB01FC0160817181A801CE010E947F
:10101000562DC00FD11F1882E9CF2F923F924F92C9
:101020005F926F927F928F929F92AF92BF92CF9278
:10103000DF92EF92FF920F931F93CF93DF93D82FFE
:10104000C92F8B010E94A02624E630E040E050E04A
:101050000E941D2C49019B01AC0160E876E988E9FA
:1010600090E00E94F92B6B017C01F8019182808253
:10107000ED2FFC2F2191822F022E000C990BC0978F
:101080000A97C0F32E3239F51F0180E8882E86E9D1
:10109000982E88E9A82EB12C9AE0492E512C612C6B
:1010A000712CF101C1911F010C2E000CDD0BE0979A
:1010B000CA30D10580F4C501B401A30192010E9498
:1010C0001D2C49015A01DE010E94642CC60ED71E58
:1010D000E81EF91EE6CFA5E0B0E0A70196010E9448
:1010E0005F2A6F5F7F4F8F4F9F4F23E030E040E0DC
:1010F00050E00E941D2CF8012283338344835583E2
:101100001682DF91CF911F910F91FF90EF90DF90AA
:10111000CF90BF90AF909F908F907F906F905F9097
:101120004F903F902F9008951F93CF93DF93EC0142
:1011300018811D3209F42196CE010E94A0269B0140
:10114000AC01A4E6B0E00E945F2AAB01BC01FE0145
:101150002991822F022E000C990BC0970A97B8F3A1
:101160002E3231F58181082E000C990BC0978A3000
:101170009105F0F4AAE0A89F9001A99F300D1124D9
:10118000C901330FAA0BBB0B480F591F6A1F7B1FE6
:101190008281082E000C990BC0978A30910540F48B
:1011A000092E000CAA0BBB0B480F591F6A1F7B1F8F
:1011B0001D3239F470956095509541955F4F6F4F92
:1011C0007F4FCB01BA01DF91CF911F910895FF921C
:1011D0000F931F93CF93DF934091150650911606FE
:1011E00060911706709118064F5F5F4F6F4F7F4FEA
:1011F00040931506509316066093170670931806D1
:10120000843209F47DC2E0910F0685320CF0C0C033
:101210008A3019F08D3009F082C2C82FEF3008F003
:1012200036C1F0E0E250FA4F1082D091FD05DD2387
:1012300009F42FC12091FE05822F022E000C990B7C
:101240003FEB320F363008F0AFC0C7978295807FF2
:101250009091FF05292F092E000C330B4FEB490FFE
:10126000463008F0A9C027533109820F9091FC0540
:101270008913FAC08091210690912206A09123063D
:10128000B09124060196A11DB11D80932106909373
:101290002206A0932306B09324068091100688238B
:1012A00099F08091190690911A06A0911B06B091B1
:1012B0001C060196A11DB11D8093190690931A0674
:1012C000A0931B06B0931C0610910D06112309F480
:1012D0007CC01130A1F58AE995E00E94390688EAC0
:1012E00095E00E94390680911006882341F187E03D
:1012F000E8E8F5E0AAE7B5E001900D928A95E1F7FC
:1013000087E0EFE8F5E0A1E8B5E001900D928A955D
:10131000E1F70E94EF046093960570939705809320
:10132000980590939905109379051093780586EBAD
:1013300095E00E94220684EC95E00E94220600912E
:10134000130610911406FF24F3940115110509F4F6
:1013500001C2E0911306F091140666A177A1F8018D
:1013600086A197A10E94462D892B09F0F3C1B801EF
:10137000C80140960E944F2D0E94EF04F80160A31F
:1013800071A382A393A3F5A2F4A202A513A5DDCFB6
:101390008A3209F442CF8C3209F0C1C19091FC0528
:1013A00098279093FC0539CF2156263018F487559D
:1013B00091094CCFC0974ACF9156963018F42755D3
:1013C000310953CF2053310950CF88EA95E00E946C
:1013D000390680911006882329F187E0E8E8F5E0D6
:1013E000AAE7B5E001900D928A95E1F787E0EFE872
:1013F000F5E0A1E8B5E001900D928A95E1F70E9431
:10140000EF046093960570939705809398059093E9
:10141000990581E0809379058093780582ED95E0C8
:101420000E9422068091EA059091EB05A091EC05BF
:10143000B091ED058093E6059093E705A093E8054C
:10144000B093E9050E94EF046093E2057093E30511
:101450008093E4059093E50581E08093E105809316
:10146000E0058EEE95E069CF80911D0690911E06F5
:10147000A0911F06B09120060196A11DB11D809379
:101480001D0690931E06A0931F06B0932006D0E081
:1014900061C190910E06911144C062E371E08EEF3C
:1014A00095E00E94462D892B41F068E371E08EEFB4
:1014B00095E00E94462D892B21F481E080930D0652
:1014C00012C06EE371E08EEF95E00E94462D892BED
:1014D00041F064E471E08EEF95E00E94462D892B87
:1014E000F1F410920D0680911106909112069093DE
:1014F000140680931306009113061091140601152B
:10150000110529F26EEF75E0F80186A197A10E94FE
:10151000462D97FF18C1F80182A593A5E8CF82E078
:10152000CDCFE0910D06E23009F448C08091FE0570
:10153000882309F443C020E2E29FF0011124E92B43
:101540003197E932F10508F039C0E755F54F0C94B1
:101550005E2CD20A130B1A0B210B240B520B590BC6
:10156000660B730BDE0ADE0ADE0ADE0ADE0ADE0A1C
:10157000DE0ADE0ADE0ADE0ADE0ADE0ADE0ADE0A2B
:10158000DE0ADE0ADE0ADE0ADE0ADE0ADE0ADE0A1B
:10159000DE0AD20A0D0B130B1A0B210B240B2B0B9B
:1015A000380B450B8EEF95E00E9494086093AE05D2
:1015B0007093AF058093B0059093B1050091130629
:1015C00010911406D0910E060115110509F45FCF94
:1015D000E0911306F091140666A177A1F80186A1A7
:1015E00097A10E94462D892B09F051CFF80120A523
:1015F00031A58D2F90E0821793070CF448CF281760
:10160000390739F440E150E06EEF75E0C8010E94FF
:10161000562DF80102A513A5D5CF91E0813409F428
:1016200045C090E043C068E875E08EEF95E00E9409
:101630000D08C4CF91E0833509F090E090938E05BA
:10164000BDCF6FE875E0F1CF91E0873509F090E00C
:1016500090939505B3CF8EEF95E00E949408609328
:10166000C0057093C1058093C2059093C305A6CFB2
:101670008EEF95E00E9494086093CE057093CF059D
:101680008093D0059093D10599CF8EEF95E00E947D
:10169000A0266093A0057093A1058093A205909366
:1016A000A3058CCF91E081330CF4BBCF909310064F
:1016B00085CF8EEF95E00E94A0266093EA05709397
:1016C000EB058093EC059093ED0578CF8EEF95E0D8
:1016D0000E9494086093F8057093F9058093FA05C9
:1016E0009093FB056BCF8EEF95E00E94940860937A
:1016F000DC057093DD058093DE059093DF055ECFFA
:1017000010920F0610920E061092FC0582E0809354
:101710000D061092FD0510921006D0E028C0EE30A4
:1017200040F491E09E0F90930F06F0E0E250FA4FE4
:101730008083D091FD05D111F0CFC091FC058C279D
:101740008093FC0514C0892B09F4A1CE10921406D5
:101750001092130680910E068F5F80930E061092F2
:101760000F0681E0CA3209F080E08093FD058D2FDD
:10177000DF91CF911F910F91FF900895AF92BF928B
:10178000CF92DF92EF92FF920F931F93CF93DF934D
:10179000DC01CD90DC901197C114D10439F014967E
:1017A000CD91DC918C017601209761F4DF91CF918E
:1017B0001F910F91FF90EF90DF90CF90BF90AF906F
:1017C000089575015701BFEFAB1ABB0AF70180817D
:1017D000082E000C990B0E944829892B91F721971C
:1017E000CC0DDD1D8881082E000C990B0E94482924
:1017F000892B29F0CE15DF0510F02197F3CFAE012C
:101800004F5F5F4F4E195F09D80115965C934E9359
:101810001497CE14DF0420F4B701C6010E943D2DB9
:10182000D801ED91FC91119714968D919C91E80F40
:10183000F91F1082BBCFCF93DF93DC0114962D915B
:101840003C911597232B79F0FB01CD91DC916081C0
:101850007181CE010E94652D009729F08C1B9D0B94
:10186000DF91CF9108958FEF9FEFFACF0F931F93E2
:10187000CF93DF938C01EB01FC0180819181009774
:10188000E1F06881798161157105A9F04281538188
:101890002C813D814217530770F00E944F2D8C819F
:1018A0009D81F801958384831D821C82DF91CF91F5
:1018B0001F910F9108950E94172688819981F80140
:1018C000918380838A819B81938382838C819D8194
:1018D00095838483198218821B821A82E5CFCF9365
:1018E000DF93EC0188819981009711F00E941726FF
:1018F000198218821D821C821B821A82DF91CF916D
:101900000895FC0180819181009711F00C941726B5
:1019100008950F931F93CF93DF93EC0188819981F2
:10192000009759F02A813B812617370730F081E074
:10193000DF91CF911F910F9108958B016F5F7F4FC2
:101940000E94802C009759F0998388831B830A8317
:101950002C813D81232B59F7FC011082E8CF80E0D8
:10196000E7CFEF92FF920F931F93CF93DF93611511
:10197000710541F480E0DF91CF911F910F91FF90AD
:10198000EF90089541155105B1F07B01EC010C81F8
:101990001D81040F151FB8010E94890C882351F383
:1019A000288139818C819D81B701820F931F0E940C
:1019B0004F2D1D830C8381E0DECFEF92FF920F93BA
:1019C0001F93CF93DF93CDB7DEB728970FB6F89468
:1019D000DEBF0FBECDBF7C01CB014AE08E010F5FA1
:1019E0001F4FB8010E94D726F80101900020E9F7A7
:1019F0003197AF01401B510BB801C7010E94B10CD8
:101A000028960FB6F894DEBF0FBECDBFDF91CF9101
:101A10001F910F91FF90EF900895FB01019000201E
:101A2000E9F73197AF01461B570B0C94B10CFB0142
:101A300044815581608171810C94B10CEF92FF92C9
:101A40000F931F93CF93DF93EC017B018A01BA01BF
:101A50000E94890C81110BC0CE010E946F0CCE0137
:101A6000DF91CF911F910F91FF90EF9008951D830B
:101A70000C83B701888199810E944F2DF0CFFB0123
:101A800001900020E9F73197AF01461B570B0C94EA
:101A90001E0DCF93DF93EC01FB018617970749F0EA
:101AA000608171816115710541F0448155810E9409
:101AB0001E0DCE01DF91CF9108950E946F0CF9CFDA
:101AC000FC01118210821382128215821482FB01A2
:101AD00001900020E9F73197AF01461B570B0C949A
:101AE0001E0D0F931F93CF93DF9300D0CDB7DEB7BA
:101AF0008C0161E371E00E94600D0E94FB0497FD80
:101B00000BC089831A8241E050E0BE016F5F7F4FB6
:101B1000C8010E94B10CF1CFC8010F900F90DF9166
:101B2000CF911F910F910895CF93DF9300D000D0F4
:101B300000D0CDB7DEB7CE0101960E94710DBE0177
:101B40006F5F7F4F8DE595E00E94360CCE010196C8
:101B50000E94810C26960FB6F894DEBF0FBECDBF53
:101B6000DF91CF910895CF92DF92EF92FF9261E3E0
:101B700071E08DE595E00E943F0D0E94EF046B013E
:101B80007C0128EBC20E2BE0D21EE11CF11C89E97E
:101B900094E00E94C002892B39F40E94EF04C6161B
:101BA000D706E806F90698F789E994E00E94C00292
:101BB000892B31F0FF90EF90DF90CF900C94940D33
:101BC000FF90EF90DF90CF900895CF92DF92EF9249
:101BD000FF92CF93DF9300D000D000D0CDB7DEB717
:101BE00061E371E08DE595E00E943F0D0E94EF04F6
:101BF0006B017C0128ECC20ED11CE11CF11C89E9AF
:101C000094E00E94C002892B39F40E94EF04C616AA
:101C1000D706E806F90698F789E994E00E94C00221
:101C2000892B79F0CE0101960E94710DBE016F5F84
:101C30007F4F8DE595E00E94360CCE0101960E9403
:101C4000810C6AE471E0CE0101960E94600DBE0134
:101C50006F5F7F4F8DE595E00E941B0C7C01CE01EC
:101C600001960E94810CEF20E09491F089E994E0C4
:101C70000E94650381E026960FB6F894DEBF0FBE82
:101C8000CDBFDF91CF91FF90EF90DF90CF9008957F
:101C900089E994E00E94650380E0EDCFAF92BF92A6
:101CA000CF92DF92EF92FF920F931F93CF93DF9328
:101CB0006C015B017A0189012417350720F48F2D0F
:101CC0007901042F182F61E371E0C6010E94600DB5
:101CD000D5011496CD91DC91EC16FD06E0F40C17BD
:101CE0001D0708F4E801D501ED91FC911197EC0F67
:101CF000FD1F108110826D917C916E0D7F1DC601BC
:101D000061157105A1F00E943F0DF501808191815F
:101D1000C80FD91F1883C601DF91CF911F910F9172
:101D2000FF90EF90DF90CF90BF90AF9008950E940A
:101D30006F0CEBCFCF92DF92EF92FF92CF93DF93B6
:101D4000CDB7DEB72C970FB6F894DEBF0FBECDBF70
:101D50006C017B0161E371E0CE0107960E94600D8A
:101D600068EE73E080E090E00E94BD048DE491E0B5
:101D70000E94AF06C6010E94AF0686E992E00E946B
:101D8000AF060E94B30D6DE575E0CE0107960E9487
:101D9000170DC7010E94AF0687E992E00E94AF06C7
:101DA0000E94B30D6DE575E0CE0107960E94170DF8
:101DB0008AE10E94600361E371E08DE595E00E9495
:101DC0003F0D0E94EF046B017C0120E1C20E27E26F
:101DD000D21EE11CF11C89E994E00E94C002892B0B
:101DE00071F40E94EF046C157D058E059F0538F493
:101DF00061E070E080E090E00E94BD04ECCF89E9F2
:101E000094E00E94C002892B81F10E94940D6DE53F
:101E100075E0CE0107960E94170D66E871E0CE01CD
:101E200001960E94600DBE016F5F7F4FCE01079645
:101E30000E941B0C7C01CE0101960E94810CCE01F8
:101E400007960E94810C81E0EF20E09409F480E085
:101E50002C960FB6F894DEBF0FBECDBFDF91CF91A9
:101E6000FF90EF90DF90CF90089561E371E08DE5F2
:101E700095E00E943F0D87E591E00E945E068FE2AB
:101E800091E00E945E06C3CFCF93DF93EC0161E344
:101E900071E00E94600D80917D0490917E04892BF9
:101EA00031F46DE871E0CE010E943F0D4CC080918D
:101EB0007D0490917E041816190634F480917D04F7
:101EC00090917E044E976CF380917D0490917E04F6
:101ED0004F9734F080917D0490917E04CC97BCF1B3
:101EE00080917D0490917E04CD97A4F580917D042E
:101EF00090917E048A369105BCF580917D04909185
:101F00007E0487399105D4F580917D0490917E04FB
:101F1000843C9105F4F580917D0490917E04813F8D
:101F200091050CF041C080917D0490917E048D322A
:101F300091400CF044C080917D0490917E048B34DC
:101F400091400CF047C0CE01DF91CF91089563E935
:101F500071E0A9CF80917D0490917E04893691052E
:101F60002CF66CE971E09FCF80917D0490917E0406
:101F70008639910514F662EA71E095CF80917D046F
:101F800090917E04833C91050CF0BECF6AEA71E02B
:101F90008ACF80917D0490917E04803F91050CF062
:101FA000BACF6EEA71E07FCF80917D0490917E047C
:101FB0008C3291400CF0B7CF67EB71E074CF809119
:101FC0007D0490917E048A3491400CF0B4CF6DEB87
:101FD00071E069CF80917D0490917E0488369140B4
:101FE0000CF0B1CF5ECFEF92FF920F931F93CF9380
:101FF000DF93EC018B01198218821B821A821D82E9
:102000001C82CB010E94CE267C01BC01CE010E9425
:10201000890C811109C0CE01DF91CF911F910F91E1
:10202000FF90EF900C946F0CFD82EC82B8018881D8
:102030009981DF91CF911F910F91FF90EF900C94B8
:10204000C7260F931F93CF93DF93CDB7DEB7689763
:102050000FB6F894DEBF0FBECDBF61E371E08FE62F
:1020600095E00E943F0DCE0101960E94710DBE01C8
:102070006F5F7F4F8FE695E00E94360CCE01019690
:102080000E94810C63E871E0CE0101960E94F30F7B
:10209000BE016F5F7F4F8FE695E00E941B0C8C01A5
:1020A000CE0101960E94810C0F3F1F4F09F460C0C2
:1020B0006CE771E0CE0107960E94F30FBE01695FE5
:1020C0007F4F8FE695E00E941B0C209173053091A5
:1020D0007405AC016FE675E0CE0101960E944E0ECC
:1020E000CE0107960E94810C69E771E0CE010D9642
:1020F0000E94F30FBE01635F7F4FCE0101960E94E5
:102100001B0C8C0167E771E0CE0107960E94F30F6C
:10211000BE01695F7F4FCE0101960E941B0CAC018E
:102120004F5F5F4F9801BE016F5F7F4FCE014396B7
:102130000E944E0EBE016D5E7F4F89E695E00E94C3
:10214000360CCE0143960E94810CCE0107960E9468
:10215000810CCE010D960E94810C89E695E00E94CB
:10216000BE0B81E080936504CE0101960E94810C34
:1021700060E771E0CE0101960E94F30FBE016F5F30
:102180007F4F8FE695E00E941B0C8C01CE010196DB
:102190000E94810C0F3F1F4F09F45BC069E671E09C
:1021A000CE0107960E94F30FBE01695F7F4F8FE655
:1021B00095E00E941B0C2091730530917405AC01D1
:1021C0006FE675E0CE0101960E944E0ECE01079695
:1021D0000E94810C66EC71E0CE0107960E94600DB2
:1021E000BE01695F7F4FCE0101960E941B0C2D81BD
:1021F0003E81AC014E5F5F4FBE016F5F7F4FCE01EE
:102200000D960E944E0EBE01635F7F4F83E695E000
:102210000E94360CCE010D960E94810CCE010796CD
:102220000E94810C83E695E00E94BE0B80916305BD
:10223000909164050097C1F00E94A02670936304FA
:102240006093620481E080936604CE0101960E944F
:10225000810C68960FB6F894DEBF0FBECDBFDF913C
:10226000CF911F910F91089560E070E0CB01E6CF10
:102270000E94CC0281110C9421100895CF92DF921C
:10228000EF92FF920F931F93CF93DF9300D000D074
:1022900000D0CDB7DEB78C017B010E949A0E882357
:1022A00009F468C08091610590916205892B39F02D
:1022B000E0915D05F0915E058081811115C068EBAC
:1022C0007BE080E090E00E94BD0426960FB6F89473
:1022D000DEBF0FBECDBFDF91CF911F910F91FF9059
:1022E000EF90DF90CF9008956AE871E0CE010196FB
:1022F0000E94F30FBE016F5F7F4F8DE595E00E9456
:102300001B0C6C01CE0101960E94810CCD20C09463
:1023100051F181E08093640464E971E180E090E030
:102320000E94BD0469EC71E0CE0101960E94600D2F
:10233000B801CE0101960E940D0D40E150E0B801B8
:10234000CE0101960E94EA07B701C8010E949A0EC9
:1023500060EA7FE080E090E00E94BD04CE0101963B
:102360000E94810CB2CF1092640460ED77E080E0AF
:1023700090E0A9CF81E08093640460E777E180E09A
:1023800090E0CECF2F923F924F925F926F927F92CA
:102390008F929F92AF92BF92CF92DF92EF92FF9275
:1023A0000F931F93CF93DF9300D01F92CDB7DEB76B
:1023B0004C0185E691E00E944503D40114960C91EE
:1023C00010E00115110509F482C0095F1F4F33E0C9
:1023D000159507953A95E1F73801660C771C600E64
:1023E000711EC3010E947B256C01015011097C0103
:1023F000B12CA12C5EEC252E51E0352EFE0131963C
:102400002F01D40114968C91149790E0079623E045
:10241000959587952A95E1F7081720F087EB90E0CE
:102420000E94B606ED91FC91E00FF11F80811F9292
:102430008F933F922F921F92B3E0BF935F924F9280
:102440000E947F2D8981F70180838A8181830FB665
:10245000F894DEBF0FBECDBF80E00115110509F075
:1024600080E2D70112968C93B3E0AB0EB11C015001
:102470001109E3E0EE0EF11C0F3F100711F66A148C
:102480007B041CF486ED90E0CBCFC114D104F9F0AD
:10249000C6010E94AF0682E691E00E944503C60194
:1024A0000F900F900F90DF91CF911F910F91FF90A0
:1024B000EF90DF90CF90BF90AF909F908F907F90E4
:1024C0006F905F904F903F902F900C9417260F9035
:1024D0000F900F90DF91CF911F910F91FF90EF9090
:1024E000DF90CF90BF90AF909F908F907F906F9034
:1024F0005F904F903F902F9008951F920F920FB6CC
:102500000F9211242F933F934F935F936F937F9379
:102510008F939F93AF93BF93EF93FF9389E994E0D9
:102520000E94D602FF91EF91BF91AF919F918F9141
:102530007F916F915F914F913F912F910F900FBEBF
:102540000F901F9018951F920F920FB60F921124A3
:102550002F938F939F93EF93FF93E091A904F091B2
:10256000AA048081E091AF04F091B00482FD1BC009
:1025700090818091B2048F5F8F732091B304821792
:1025800041F0E091B204F0E0E756FB4F958F809365
:10259000B204FF91EF919F918F912F910F900FBEF9
:1025A0000F901F9018958081F4CF1F920F920FB655
:1025B0000F9211242F933F938F939F93AF93BF93C9
:1025C0008091560490915704A0915804B0915904F9
:1025D0003091550423E0230F2D3758F50196A11DA6
:1025E000B11D209355048093560490935704A093F3
:1025F0005804B093590480915A0490915B04A091BF
:102600005C04B0915D040196A11DB11D80935A0434
:1026100090935B04A0935C04B0935D04BF91AF9171
:102620009F918F913F912F910F900FBE0F901F9010
:10263000189526E8230F0296A11DB11DD2CF1F9237
:102640000F920FB60F9211242F933F934F935F93E6
:102650006F937F938F939F93AF93BF93EF93FF936A
:10266000E0910201F09103010995FF91EF91BF9173
:10267000AF919F918F917F916F915F914F913F911A
:102680002F910F900FBE0F901F9018951F920F92D1
:102690000FB60F9211242F933F934F935F936F9335
:1026A0007F938F939F93AF93BF93EF93FF93E091AB
:1026B0000001F09101010995FF91EF91BF91AF9158
:1026C0009F918F917F916F915F914F913F912F914A
:1026D0000F900FBE0F901F9018951F920F920FB67C
:1026E0000F9211242F933F934F935F936F937F9398
:1026F0008F939F93AF93BF93EF93FF93E091600409
:10270000F0916104309749F0A685B7858585968D4F
:1027100091FF14C09C918923A1F4FF91EF91BF9187
:10272000AF919F918F917F916F915F914F913F9169
:102730002F910F900FBE0F901F9018959C91892399
:1027400061F7A389B4899C918589809589238C93AD
:10275000868997890197F1F7608D718DA685B78578
:10276000558538E020E0CB010197F1F7822F90E00A
:1027700095958795282F4C91452309F02068315075
:1027800091F7868D81FD209580915F0490E0019600
:102790008F73992730915E04381799F0A0915F04E8
:1027A000B0E0A55FBB4F2C9380935F04828D938D27
:1027B0000197F1F7A389B4898C919589892B8C9322
:1027C000ACCF868D8160868FF1CF10929C041092E1
:1027D0009B0488EE93E0A0E0B0E080939D0490938A
:1027E0009E04A0939F04B093A0042FE031E03093A7
:1027F0009A042093990425EC30E03093A6042093AA
:10280000A50424EC30E03093A8042093A70420EC26
:1028100030E03093AA042093A90421EC30E03093F7
:10282000AC042093AB0422EC30E03093AE04209350
:10283000AD0426EC30E03093B0042093AF04109246
:10284000B2041092B3041092B4041092B504109222
:102850002806109227068093290690932A06A093B3
:102860002B06B0932C0681E291E09093260680938C
:10287000250610923C0610923B0610923E061092DE
:102880003D061092400610923F06109242061092AA
:102890004106609143066E7F6D7F609343066695A7
:1028A000617081E068278FEF0E94D70361E08FEFAE
:1028B0000E940504E6EFF4E0E491E0933506E2EED1
:1028C000F4E0E491F0E0EE0FFF1FE752FC4F85913A
:1028D0009491909337068093360660E08CE00E94D6
:1028E00005048091430681FD04C061E08CE00E94F4
:1028F000D7038CE080933106E3E0F4E0E491E093C9
:102900003206EFEEF3E0E491F0E0EE0FFF1FE1534B
:10291000FC4F8591949190933406809333061092E6
:1029200078051092790510927B0510927A05109225
:102930007C0510927D0510927E0510927F05109205
:1029400080051092820510928105109283051092E5
:1029500084051092850510928605109287051092C5
:1029600089051092880510928A0510928B051092A5
:102970008C0510928D0510928E0510929005109284
:102980008F05109291051092920510929305109266
:1029900094051092950510929A0510929B0510923D
:1029A0009C0510929D0510929E0510929F05109215
:1029B000A8051092A9051092AA051092AB051092D5
:1029C000AC051092AD051092B6051092B7051092A5
:1029D000BC051092BD051092BE051092BF05109265
:1029E000C4051092C5051092CA051092CB0510922D
:1029F000CC051092CD051092D2051092D3051092FD
:102A0000D8051092D9051092DA051092DB051092C4
:102A1000E0051092E1051092E6051092E70510928C
:102A2000E8051092E9051092EE051092EF0510925C
:102A3000F4051092F5051092F6051092F705109224
:102A4000FC051092FD0582E080930D0610920E06A3
:102A500010920F0610921006109212061092110694
:102A60001092140610921306109215061092160674
:102A700010921706109218061092190610921A0654
:102A800010921B0610921C0610921D0610921E0634
:102A900010921F0610922006109221061092220614
:102AA00010922306109224061092FE0581E0809376
:102AB0007505109276051092770583E080930401E6
:102AC0001092380510923705809136058F5F8093FC
:102AD0003605813021F080E793E00E94B60661E37D
:102AE00071E08FE695E00E94600D61E371E089E698
:102AF00095E00E94600D61E371E083E695E00E943D
:102B0000600D61E371E08DE595E00E94600D61E389
:102B100071E087E595E00E94600D61E371E081E579
:102B200095E00E94600D61E371E08BE495E00E9406
:102B3000600D61E371E085E495E00E94600D61E362
:102B400071E08FE395E00E94600D61E371E089E33D
:102B500095E00C94600DCF93DF93CDB7DEB7C154F1
:102B6000D1090FB6F894DEBF0FBECDBF789484B5FF
:102B7000826084BD84B5816084BD85B5826085BD79
:102B800085B5816085BD80916E00816080936E0007
:102B900010928100809181008260809381008091F9
:102BA00081008160809381008091800081608093AA
:102BB00080008091B10084608093B1008091B0006A
:102BC00081608093B00080917A00846080937A0065
:102BD00080917A00826080937A0080917A0081608F
:102BE00080937A0080917A00806880937A001092B6
:102BF000C10061E089E00E94050461E086E00E9476
:102C0000050460E083E00E94050460E089E00E9422
:102C1000D70360E086E00E94D703E091A904F09119
:102C2000AA0482E08083E091A504F091A6041082BA
:102C3000E091A704F091A80480E180831092B10490
:102C4000E091AD04F091AE0486E08083E091AB04A6
:102C5000F091AC04808180618083E091AB04F091BD
:102C6000AC04808188608083E091AB04F091AC0477
:102C7000808180688083E091AB04F091AC04808116
:102C80008F7D80831092400610923F0610923E0680
:102C900010923D0610923C0610923B068DE991E0A1
:102CA000909342068093410690913106963108F048
:102CB00047C02DEB30E030933C0620933B062BE9D8
:102CC00031E030933E0620933D062CE231E0309314
:102CD000400620933F062091680084E0983048F039
:102CE00031E09E3008F430E081E001C0880F3A9571
:102CF000EAF7822B809368002DE630E0983050F0A0
:102D00002BE630E09E3030F02CE630E0963110F0CB
:102D100030E020E03093390620933806292F30E048
:102D2000983008F0C9C081E001C0880F9A95EAF791
:102D300080933A0680914106909142060197F1F7FF
:102D400080913F0690914006892B49F1E091600403
:102D5000F091610426E0E532F20709F1309739F08D
:102D6000A389B4899C918589809589238C938091CE
:102D700043068E7F8093430610925F0410925E0498
:102D800085E296E09093610480936004E0913806B8
:102D9000F0913906808190913A06892B8083809149
:102DA0009704882311F40C94EF2381E790E00E94AC
:102DB0003602482E88EA92E00E943602882E912C34
:102DC000C40101960E943602682E8FE495E00E94AD
:102DD0003602C82E84EF9DE10E943602182FC816D5
:102DE00008F477C041E04C0D4EAF89EA92E00E94B2
:102DF0003602D82E8AE590E00E947B257C01EBED1F
:102E0000F1E05C01865A9F4F17012491D1012D9367
:102E10001D0131968A179B07C1F7212F30E00FEF74
:102E200010E042E062E1C7010E94CA060D2D10E0E9
:102E30002EE030E044E062E1C7010E94CA06512C56
:102E40008401920147E062E1C7010E94CA06D12CC9
:102E5000712C8601930148E062E1C7010E94CA0615
:102E600093014AE062E1C7010E94CA06840192010F
:102E70004DE062E1C7010E94CA060CE110E02CE1BE
:102E800030E04FE062E1C7010E94CA06BEAD2B2FC1
:102E900030E00FEF10E041E162E1C7010E94CA0695
:102EA00083E0F7018587D50111968C918B3F99F4CA
:102EB00083EC92E00E94B6069E3040F4285031091F
:102EC00081E001C0880F2A95EAF732CF2E503109F0
:102ED000F7CF8EAF8ACFF50182818B3F19F484EC56
:102EE00092E0E8CFF5E0AF0EB11C2A143B04D9F60E
:102EF0008DE090E00E947B258C01DC011196FC9214
:102F0000EE9282E190E013969C938E9312974CE19F
:102F1000B42E1496BC92149715961C921597189679
:102F20001C9218971A961C921E9219971C961C9226
:102F30001E921B9785E090E00E947B256C01FC01AE
:102F4000B28284E08383148284E090E00E947B2537
:102F5000D6018D939C93F801D782C6828BED92E0C7
:102F6000EF2809F4A7CF8EED92E0CD2809F4A2CF87
:102F7000E0913705F0913805309731F4109338051A
:102F80000093370507C0FC01838594850097D9F726
:102F90001487038700913705109138050115110535
:102FA00021F480E094E086CF8C01D8011B968D91AE
:102FB0009C910097C9F78EE090E00E947B25FC0170
:102FC0001182108282EC91E19383828380ED97E0FD
:102FD000A0E0B0E084839583A683B7831086118632
:102FE0001286138615861486D80119962D913C9168
:102FF0001A972115310531F41A96FC93EE9319971F
:103000000C94E723D9011C968D919C911D970097F4
:1030100011F40C94E3239C01F5CF89E994E00E941C
:10302000C002892BA9F0CE0101960E94710D1E8A63
:103030001D8A188E1F8A1A8E198EBE016F5F7F4FF0
:10304000CE0145960E94360CCE0101960E94810C5D
:10305000BE016B5E7F4FC7010E94360CCE014596C4
:103060000E94810C69E972E0CE0101960E94600D18
:10307000BE016F5F7F4FC7010E941B0C8C01CE0108
:1030800001960E94810C0F3F1F4F09F4A8C361E70E
:1030900072E0CE0101960E94F30FBE016F5F7F4F79
:1030A000C7010E941B0C2BA93CA9AC01B701CE01A2
:1030B00089960E944E0ECE0101960E94810C6FE609
:1030C00072E0CE0145960E94F30FBE016B5E7F4F0A
:1030D000CE0189960E941B0C8C016DE672E0CE0138
:1030E0004F960E94F30FBE01615E7F4FCE0189961D
:1030F0000E941B0C9801205F3F4FAC014B5F5F4F5C
:10310000BE01675D7F4FCE0101960E944E0EBE014B
:103110006F5F7F4F81E595E00E94360CCE010196EE
:103120000E94810CCE014F960E94810CCE014596E3
:103130000E94810C81E595E00E94BE0B6BE672E077
:10314000CE0145960E94F30FBE016B5E7F4FCE010C
:1031500089960E941B0C2DA53EA5AC014C5F5F4FCC
:10316000BE01675D7F4FCE0101960E944E0EBE01EB
:103170006F5F7F4F8BE495E00E94360CCE01019685
:103180000E94810CCE0145960E94810C8BE495E053
:103190000E94BE0B1EAA1DAA18AE1FAA1AAE19AE17
:1031A00061E575E0CE01C5960E94490DCE01899674
:1031B0000E94810CC7010E94810C6AEE72E0CE0170
:1031C00001960E94F30FBE016F5F7F4F8BE495E085
:1031D0000E941B0C1B2D0196D9F565EE72E0CE0105
:1031E00045960E94F30FBE016B5E7F4F8BE495E026
:1031F0000E941B0C019641F561EE72E0CE014F96E4
:103200000E94F30FBE01615E7F4F8BE495E00E9448
:103210001B0C0196A9F46DED72E0CE0189960E9417
:10322000F30FBE01675D7F4F8BE495E00E941B0C9E
:1032300011E0019609F410E0CE0189960E94810CFC
:10324000CE014F960E94810CCE0145960E94810CC2
:10325000CE0101960E94810C112309F436C1CDB62E
:10326000DEB640E150E0BE016F5F7F4F81E595E043
:103270000E94EA0761E371E0CE0189960E94600D29
:1032800010929B0540909C0550909D0560909E0576
:1032900070909F056FE972E0CE0189960E940D0D36
:1032A000C301B20120E137E240E050E00E941D2C52
:1032B000622F70E0CE0189960E94DD0C66EA72E012
:1032C000CE0189960E940D0DC301B20124E630E0C3
:1032D00040E050E00E941D2CCA01B90124E630E014
:1032E00040E050E00E941D2CCE0189960E94DD0C2A
:1032F00060E371E0CE0189960E940D0D68EA72E0EC
:10330000CE0189960E940D0D1092A9054090AA0544
:103310005090AB056090AC057090AD05C301B20153
:1033200020E432E44FE050E00E941D2C30E089019F
:103330000350110917FF02C0085E1F4FC301B201FD
:1033400020E137E240E050E00E941D2CCA01B901A3
:1033500024E630E040E050E00E941D2C7F936F9304
:103360008DEC93E09F938F93FF92EF920E94AF2D8D
:10337000B801CE0189960E94DD0C6DE972E0CE01A4
:1033800089960E940D0DB701CE0189960E940D0D00
:1033900060E371E0CE0189960E940D0D62EB72E050
:1033A000CE0189960E940D0D60917B0470917C0482
:1033B000CE0189960E94DD0C6FEB72E0CE018996FA
:1033C0000E940D0D66EC72E0CE0189960E940D0DF3
:1033D00080917B0490917C040F900F900F900F9040
:1033E0000F900F9005970CF001C260ED72E0CE01D6
:1033F00089960E940D0D60E371E0CE0189960E94CE
:103400000D0D67ED72E0CE0189960E940D0D60E30F
:1034100071E0CE0189960E940D0D64EE72E0CE013E
:1034200089960E940D0D60917704709178048091C7
:10343000790490917A048E01015E1F4F25E044E0EB
:103440000E945D25B801CE0189960E940D0D67ECA2
:1034500071E0CE0189960E940D0D60916F0470910C
:10346000700480917104909172040A50110925E052
:1034700044E00E945D25B801CE0189960E940D0DA1
:103480004DA55EA5EDB7FEB7E41BF50B0FB6F8949E
:10349000FEBF0FBEEDBF0DB71EB70F5F1F4F41152B
:1034A000510529F0B801CE0189960E94EA07B801BA
:1034B000CE0101960E943E11CE0189960E94810C98
:1034C0000FB6F894DEBE0FBECDBE68ED72E0CE0141
:1034D00001960E94F30FBE016F5F7F4F8BE495E072
:1034E0000E941B0C1B2D0196D9F563ED72E0CE01F5
:1034F00045960E94F30FBE016B5E7F4F8BE495E013
:103500000E941B0C019641F56EEC72E0CE014F96C5
:103510000E94F30FBE01615E7F4F8BE495E00E9435
:103520001B0C0196A9F463EC72E0CE0189960E940F
:10353000F30FBE01675D7F4F8BE495E00E941B0C8B
:1035400011E0019609F410E0CE0189960E94810CE9
:10355000CE014F960E94810CCE0145960E94810CAF
:10356000CE0101960E94810C1123A9F040E150E0A8
:10357000BE016F5F7F4F81E595E00E94EA0766E03C
:1035800073E0CE0101960E943E1160EA7FE080E088
:1035900090E00E94BD0468EB72E0CE0101960E94AB
:1035A000F30FBE016F5F7F4F8BE495E00E941B0C11
:1035B0001B2D0196D9F56DEA72E0CE0145960E9469
:1035C000F30FBE016B5E7F4F8BE495E00E941B0CF6
:1035D000019641F562EA72E0CE014F960E94F30F28
:1035E000BE01615E7F4F8BE495E00E941B0C01964B
:1035F000A9F46CE972E0CE0189960E94F30FBE0136
:10360000675D7F4F8BE495E00E941B0C11E00196F3
:1036100009F410E0CE0189960E94810CCE014F96EC
:103620000E94810CCE0145960E94810CCE0101962C
:103630000E94810C1123A9F040E150E0BE016F5FB0
:103640007F4F81E595E00E94EA0760E273E0CE01DA
:1036500001960E943E1160EA7FE080E090E00E94C7
:10366000BD0465E972E0CE0101960E94F30FBE0130
:103670006F5F7F4F8BE495E00E941B0C0196E1F594
:103680006EE872E0CE0145960E94F30FBE016B5EBC
:103690007F4F8BE495E00E941B0C019649F567E88B
:1036A00072E0CE014F960E94F30FBE01615E7F4F24
:1036B0008BE495E00E941B0C0196B1F461E872E086
:1036C000CE0189960E94F30FBE01675D7F4F8BE4A8
:1036D00095E00E941B0CBB24B394019609F4B12C15
:1036E000CE0189960E94810CCE014F960E94810CDA
:1036F000CE0145960E94810CCE0101960E94810C5C
:10370000BB20A9F040E150E0BE016F5F7F4F81E533
:1037100095E00E94EA076AE373E0CE0101960E94F9
:103720003E1160EA7FE080E090E00E94BD04CE019F
:10373000C5960E94810C80919704882309F4FCC2ED
:103740002090370530903805B12C2114310409F44C
:10375000D8C2D10118968C91882309F4CDC210915A
:103760007605112321F0BB2009F438C2B12E0E9446
:10377000EF042B013C01D1011996CD90DC90C114CE
:10378000D10409F4B0C2F60184819581A681B78184
:103790000097A105B10599F0408551856285738533
:1037A000411551056105710551F0840F951FA61F44
:1037B000B71F481659066A067B0608F484C2D6016C
:1037C0000D911C91F101A681B7810115110509F434
:1037D0007FC2109709F034C28CED90E06BCB61E3AF
:1037E00071E0CE01C5960E94600DE4CCCE014596F5
:1037F0000E94440FBE016B5E7F4FCE0189960E94EE
:10380000170DCE0145960E94810CF5CD809165047F
:10381000882309F490CF109265048AE493E00E9413
:10382000AF060E94E50D811110C06CED75E080E0DF
:1038300090E00E94BD048AE493E00E94AF0664EF2A
:1038400071E080E090E00E94BD0460ED77E080E0F0
:1038500090E00E94BD041EAA1DAA18AE1FAA1AAEAF
:1038600019AE69E675E0CE01C5960E94490DADB668
:10387000BEB689AD9AAD892B69F0EDA9FEA9309746
:1038800049F08081803331F480E28083CE01C59697
:103890000E94BE0B4DE050E0BE016F5F7F4FCE0136
:1038A000C5960E94EA0761E371E0C7010E94600DBE
:1038B00010929B0540909C0550909D0560909E0540
:1038C00070909F056FE972E0C7010E940D0DC30162
:1038D000B20120E137E240E050E00E941D2C622F4F
:1038E00070E0C7010E94DD0C66EA72E0C7010E9429
:1038F0000D0DC301B20124E630E040E050E00E942B
:103900001D2CCA01B90124E630E040E050E00E94DD
:103910001D2CC7010E94DD0C60E371E0C7010E940D
:103920000D0D68EA72E0C7010E940D0D1092A90505
:103930004090AA055090AB056090AC057090AD0525
:10394000C301B20120E432E44FE050E00E941D2C9C
:1039500030E06901F3E0CF1AD108D7FE04C0690155
:1039600045E1C40ED11CC301B20120E137E240E0C1
:1039700050E00E941D2CCA01B90124E630E040E06D
:1039800050E00E941D2C7F936F938DEC93E09F93EA
:103990008F938E01055C1F4F1F930F930E94AF2DD5
:1039A000B601C7010E94DD0C6DE972E0C7010E94FB
:1039B0000D0DB801C7010E940D0D60E371E0C70154
:1039C0000E940D0D62EB72E0C7010E940D0D609127
:1039D0007B0470917C04C7010E94DD0C6FEB72E0E8
:1039E000C7010E940D0D6FE473E0C7010E940D0D29
:1039F00080917B0490917C040F900F900F900F901A
:103A00000F900F9005970CF087C060ED72E0C70132
:103A10000E940D0D60E371E0C7010E940D0D67ED7E
:103A200072E0C7010E940D0D60E371E0C7010E94C2
:103A30000D0D64EE72E0C7010E940D0D60917704D8
:103A4000709178048091790490917A048E01015EDE
:103A50001F4F25E044E00E945D25B801C7010E9488
:103A60000D0D67EC71E0C7010E940D0D60916F04B0
:103A70007091700480917104909172040A50110940
:103A800025E044E00E945D25B801C7010E940D0DAC
:103A90004BA95CA98DB79EB7841B950B0FB6F89404
:103AA0009EBF0FBE8DBF0DB71EB70F5F1F4F4115D5
:103AB000510521F0B801C7010E94EA07B801CE0103
:103AC00001960E949A0E882309F480C080916105B6
:103AD00090916205892B39F0E0915D05F0915E05CA
:103AE0008081811128C068EB7BE080E090E00E943B
:103AF000BD04C7010E94810C0FB6F894BEBE0FBE74
:103B0000ADBECE01C5960E94810C60ED77E080E0ED
:103B100090E00E94BD040FCECE0145960E94440F56
:103B2000BE016B5E7F4FC7010E94170DCE01459607
:103B30000E94810C6FCF6FEE72E0CE0189960E94D9
:103B4000F30FBE01675D7F4F8DE595E00E941B0C72
:103B50006C01CE0189960E94810CCD20C09479F130
:103B600081E08093640464E971E180E090E00E9468
:103B7000BD0469EC71E0CE0189960E94600DBE0122
:103B80006F5F7F4FCE0189960E940D0D40E150E09E
:103B9000BE016F5F7F4FCE0189960E94EA07B80190
:103BA000CE0101960E949A0E60EA7FE080E090E0EC
:103BB0000E94BD04CE0189960E94810C9ACF10927A
:103BC000640460ED77E080E090E091CF81E0809345
:103BD000640460E777E180E090E0C9CFB0907705BA
:103BE000BB2041F080917505823010F40E942D05B4
:103BF00010927705EFEFFFEFF0936A04E09369040A
:103C000080E190E0909368048093670441E050E085
:103C10006BE574E0809175050E9441058091670411
:103C2000909168040C97D4F780917505823010F458
:103C30000E942D05BB2009F499CD0E94610597CD06
:103C4000F801A4808A2D90E014969C901497292D59
:103C500030E028173907BCF182179307A4F10197C8
:103C6000B8F1282F8A1518F08FEA90E023C9382F71
:103C7000377041E050E001C0440F3A95EAF7BC01CB
:103C800033E0759567953A95E1F7F8010190F08179
:103C9000E02DFFAFEEAFE60FF71F3081342388240D
:103CA0008394311101C0812C2915F0F62D913C919E
:103CB0001197260F371FF9012081422321E009F4D3
:103CC00020E0281561F2D6011C96CD90DC9057CDEE
:103CD000F601408651866286738622813381CD014A
:103CE000F9010995F0CFF10186819781009721F0C4
:103CF000158210860E941F07D1011B962D903C90C3
:103D000024CDBB20C9F0F8940091370510913805F7
:103D10000115110581F0F8018085811107C08681A8
:103D20009781009719F015820E941F07D8011B96F2
:103D30000D911C91EDCF789485E296E00E94E60506
:103D40001816190644F485E296E00E94FE050E94CA
:103D5000E708882389F38091780590917905992364
:103D600009F4EDC4882309F4DCC010927905609150
:103D70007C0570917D0580917E0590917F050E9464
:103D8000612928E23BE64EE65EE40E941D2B4B01D2
:103D90005C0160917A0570917B0590E080E00E9463
:103DA00061299B01AC01C501B4010E94B12A4B01FC
:103DB0005C0180918005882321F0B7FAB094B7F8B0
:103DC000B0948092770490927804A0927904B09293
:103DD0007A0420E030E543EC57E4C501B4010E94C9
:103DE0009E299F770E948F2B6093730470937404B5
:103DF0008093750490937604AE014F5F5F4FC501C9
:103E0000B4010E94C52B20E030E040E752E40E945C
:103E10009E294B015C0120E030E048EC52E46981CE
:103E20007A818B819C810E949E299F77A5019401B4
:103E30005F770E94B12A69837A838B839C8309E828
:103E400014E024E047E00E945D251092790560911E
:103E500083057091840580918505909186050E9467
:103E6000612928E23BE64EE65EE40E941D2B4B01F1
:103E70005C01609181057091820590E080E00E9474
:103E800061299B01AC01C501B4010E94B12A4B011B
:103E90005C0180918705882321F0B7FAB094B7F8C8
:103EA000B09480926F0490927004A0927104B092CA
:103EB000720420E030E543EC57E4C501B4010E94F0
:103EC0009E299F770E948F2B60936B0470936C04E4
:103ED00080936D0490936E04AE014F5F5F4FC501F8
:103EE000B4010E94C52B20E030E040E752E40E947C
:103EF0009E294B015C0120E030E048EC52E46981EE
:103F00007A818B819C810E949E299F77A5019401D3
:103F10005F770E94B12A0FE714E024E047E00E9497
:103F20005D258091C4058823C9F01092C505609174
:103F3000CA057091CB058091CC059091CD050E946A
:103F4000632920E030E048EC52E40E941D2B9F776B
:103F50000E948F2B70937E0460937D048091B60540
:103F60008823F9F01092B7056091BC057091BD05EA
:103F70008091BE059091BF050E94632926E53EE031
:103F80004DEE5FE30E949E2920E030E048EC52E4D1
:103F90000E941D2B9F770E948F2B70937C0460934F
:103FA0007B04109196041F5F109396048DE00E948D
:103FB000AE0361E0892B09F060E08DE00E94D70339
:103FC000153008F4F8C3109296048091970481117B
:103FD00092C36BE573E0CE0101960E94600D1E0155
:103FE000B5E12B0E311C6BE573E0C1010E94600D41
:103FF00061E673E0CE014F960E94600DBE01615EE6
:104000007F4F85E495E00E94490DB1018FE395E073
:104010000E94490DBE016F5F7F4F89E395E00E94CA
:10402000490DCE014F960E94810CC1010E94810C66
:10403000CE0101960E94810C8CE193E00E94450321
:1040400064EF71E080E090E00E94BD0488E093E0BE
:104050000E94450385E495E00E94860286E992E08D
:104060000E94AF060E94B30D65E073E0CE01019699
:104070000E94F30FBE016F5F7F4F8DE595E00E94B8
:104080001B0C8C01CE0101960E94810C0F3F1F4F2B
:10409000C9F168EC70E080E090E00E94BD048BEF15
:1040A00092E00E94450385E495E00E9486028EE638
:1040B00093E00E94AF068FE395E00E9486028EE6B1
:1040C00093E00E94AF0689E395E00E94860288EFA4
:1040D00092E00E9445030E94B30D65EF72E0CE01AD
:1040E00001960E94F30FBE016F5F7F4F8DE595E053
:1040F0000E941B0C8C01CE0101960E94810C0F3F87
:104100001F4F31F061E371E08DE595E00E943F0DB6
:104110008CE693E00E94450360E273E080E090E06B
:104120000E94BD0482E693E00E94450360E273E0D2
:1041300080E090E00E94BD0484E593E00E94450386
:1041400068EC70E080E090E00E94BD0488E293E0BB
:104150000E94450364EC79E080E090E00E94BD0499
:1041600068EE73E080E090E00E94BD0489E994E08D
:104170000E94C0028C01112789E994E00E949E02EE
:1041800001501109C8F782E893E00E9445030E949C
:10419000B30D62E773E0CE0101960E94600DBE018F
:1041A0006F5F7F4F8DE595E00E941B0C8C01CE0167
:1041B00001960E94810C0F3F1F4F51F068EE73E093
:1041C00080E090E00E94BD0486E793E00E944503F2
:1041D00068EE73E080E090E00E94BD0461E371E06E
:1041E000C1010E94600D68E773E0C1010E943F0DAC
:1041F000C1010E9486028AE10E94600361E371E0CE
:104200008DE595E00E943F0D0E94EF044B015C019B
:10421000A8E58A0EABE19A1EA11CB11C89E994E0C5
:104220000E94C002892B71F40E94EF046815790581
:104230008A059B0538F461E070E080E090E00E9420
:10424000BD04ECCF89E994E00E94C002892B09F4F7
:1042500067C20E94940D60EC73E0CE0101960E944B
:10426000600DCE0101960E94810C61E371E0C101F5
:104270000E943F0DC1010E94810C68EE73E080E056
:1042800090E00E94BD0461E371E08DE595E00E943D
:104290003F0D68EB7BE080E090E00E94BD048AE97E
:1042A00093E00E9445030E94B30D62E773E0CE01E4
:1042B00001960E94600DBE016F5F7F4F8DE595E016
:1042C0000E941B0C8C01CE0101960E94810C0F3FB5
:1042D0001F4F51F068EE73E080E090E00E94BD0453
:1042E0008EE893E00E94450364EC79E080E090E082
:1042F0000E94BD0461E371E0CE014F960E94600D03
:1043000010929B0580909C0590909D05A0909E0525
:10431000B0909F05C501B40120E137E240E050E0D4
:104320000E941D2CC22ED12CC501B40124E630E020
:1043300040E050E00E941D2C4B01CA01B90124E667
:1043400030E040E050E00E941D2C2B0122967FAF10
:104350006EAF229784011092A9056091AA05709111
:10436000AB058091AC059091AD0520E432E44FE0BF
:1043700050E00E941D2C30E0F9013396FFAFEEAF04
:1043800078970CF4D5C0C90145979FAF8EAFC20195
:1043900009966CE070E00E94092CFC0166EF7FEF4B
:1043A0000E94092C680D791D2DE631E0629F4001C5
:1043B000639F900C729F900C112477FF02C06D5F79
:1043C0007F4F7595679575956795860E971E22E3C5
:1043D00031E0E29FC001E39F900DF29F900D112408
:1043E00005966AE070E00E94092C860E971E91E007
:1043F000C91AD1088C0C9D1C092C000CAA08BB08FA
:10440000AFEF8A1A9A0AAA0ABA0AA0E1B7E2A5018E
:1044100094010E945F2A6454764C8F4F9F4F29E489
:104420003BEB47E350E00E943F2C2901F9018DE668
:1044300091E0849D9001859D300D949D300D112457
:10444000620157FE03C0B3E0CB0ED11CD594C794D4
:10445000D594C794C20ED31ECF016CE97FEF0E94A2
:10446000092CC60ED71ECF0160E971E00E94092C0D
:10447000C60ED71EC4018C199D096C0197FF1EC082
:10448000F20131972D563140CF01F7FD03969595F6
:10449000879595958795280F391FCF016CE97FEF98
:1044A0000E94092C260F371FCF0160E971E00E949E
:1044B000092C260F371F6401C21AD30A24E62C9D4B
:1044C000C0012D9D900D1124C49664EF7BE00E94E5
:1044D000092C9B01CB0102966CE070E00E94092C34
:1044E0005C01AFEFAA1ABA0AE60FF71F42E351E0E8
:1044F000249FC001259F900D349F900D1124059697
:1045000066EF7FEF0E94092CC60ED71EBFEFCB1AB5
:10451000DB0AE0939504A0929404C09293048F0167
:104520001127F501FF272296FFAFEEAF2297DD247A
:10453000DF92CF922296FFAD2297FF9321962FAD67
:1045400021972F931F930F9305EC13E01F930F9365
:104550003F922F920E94AF2D62ED73E0CE014F96F5
:104560000E943F0DB101CE014F960E940D0D6CEEE1
:1045700073E0CE014F960E940D0D61EF73E0CE0106
:104580004F960E940D0D1092A9058090AA0590905B
:10459000AB05A090AC05B090AD05C501B40124E613
:1045A00030E040E050E00E941D2CCA01B90124E631
:1045B00030E040E050E00E941D2C7F936F93C501D6
:1045C000B40120E137E240E050E00E941D2CCA0116
:1045D000B90124E630E040E050E00E941D2C7F93BA
:1045E0006F934FAD4F938EAD8F931F930F933F9269
:1045F0002F920E94AF2DB101CE014F960E940D0D5A
:1046000066EF73E0CE014F960E940D0D69E874E0ED
:10461000CE014F960E940D0D6EEF73E0CE014F96C6
:104620000E940D0D6FE774E0CE014F960E940D0DB4
:1046300062E074E0CE014F960E940D0D1092B70516
:104640006091BC057091BD058091BE059091BF053C
:104650000E94632920E030E048EC52E40E941D2BC8
:104660008E010F5F1F4F22E044E00E945D25FC0198
:1046700001900020E9F73197AF01481B590BBC01AD
:10468000CE014F960E94B10C8CE289831A8241E0E0
:1046900050E0B801CE014F960E94B10C60917D04AC
:1046A00070917E04CE014F960E94DD0C66E074E0AE
:1046B000CE014F960E940D0DCE014F960E948602AC
:1046C0008AE10E946003CE014F960E94810C61E353
:1046D00071E08DE595E00E943F0D68EE73E080E0AB
:1046E00090E00E94BD04ADB7BEB754960FB6F894E3
:1046F000BEBF0FBEADBF89E994E00E9465030E9472
:10470000EF044B015C0185E296E00E94E605892BEF
:1047100091F185E296E00E94FE050E94E708F3CF42
:1047200061E371E08DE595E00E943F0D83E993E040
:104730000E945E068FE291E00E945E068CCD8111A0
:104740000BC089E00E94AE0361E0892B09F060E0B4
:1047500089E00E94D703CFCF1092E1058091E60552
:104760009091E705A091E805B091E9050397A105AF
:10477000B10538F3C0CF0E94EF04681979098A099E
:104780009B09643C79408105910508F4BCCF809178
:10479000150690911606A0911706B09118060A9773
:1047A000A105B10540F486EA93E00E9445038FE23B
:1047B00091E00E945E060E94CC02882309F4D6C0D4
:1047C0000E942110CFC01D96FC93EE931C9787E5A5
:1047D00092E00E944503109276050E94610583EDE8
:1047E00091E00E94AF0662E370E080E090E00E94FA
:1047F000BD0462E370E080E090E00E94BD0488EDBB
:1048000091E00E94AF0662E370E080E090E00E94D9
:10481000BD0483EE91E00E94AF0662E370E080E0A9
:1048200090E00E94BD048EEE91E00E94AF066EE122
:1048300070E080E090E00E94BD0489EF91E00E946A
:10484000AF066EE170E080E090E00E94BD0484E07D
:1048500092E00E94AF066EE170E080E090E00E947E
:10486000BD0482E192E00E94AF066EE170E080E05C
:1048700090E00E94BD0488E192E00E94AF066EE1E4
:1048800070E080E090E00E94BD048EE192E00E9422
:10489000AF066EE170E080E090E00E94BD048DE222
:1048A00092E00E94AF066EE170E080E090E00E942E
:1048B000BD048CE392E00E94AF066EE170E080E000
:1048C00090E00E94BD048AE492E00E94AF066EE18F
:1048D00070E080E090E00E94BD0487E592E00E94D5
:1048E000AF066EE170E080E090E00E94BD0484E6D7
:1048F00092E00E94AF066EE170E080E090E00E94DE
:10490000BD0488E692E00E94AF066EE170E080E0B0
:1049100090E00E94BD0485E892E00E94AF060E94EC
:10492000E50D64E670E080E090E00E94BD0489E45B
:1049300092E00E94450364E670E080E090E00E940F
:10494000BD040E9450060E94500668E57BE180E0AD
:1049500090E00E94BD0442E050E062E372E080E03B
:104960000E9441057E01BFE2EB0EF11C89E994E053
:104970000E94C0021816190634F40E94211089E919
:1049800094E00E946503809198048111109298042C
:10499000B0906604BB2011F40C94061C10926604BF
:1049A00064EF71E080E090E00E94BD0440906204FA
:1049B0005090630461E371E0C7010E94600D61E300
:1049C00071E083E695E00E943F0D88E792E00E9447
:1049D0004503052C000C660877084AE0C301B201C4
:1049E00077FE0BC08DE20E94600366277727CB011C
:1049F00064197509860997094AE00E946B0687E9E0
:104A000092E00E94AF0601E117E289E994E00E947A
:104A1000C002892B11F00C940D180150110911F4EA
:104A20000C940D186AE070E080E090E00E94BD04F4
:104A3000ECCF89E395E00E94810C8FE395E00E9422
:104A4000810C85E495E00E94810C8BE495E00E9446
:104A5000810C81E595E00E94810C87E595E00E943C
:104A6000810C8DE595E00E94810C83E695E00E9423
:104A7000810C89E695E00E94810C8FE695E00E940A
:104A8000810C81E291E09093260680932506809127
:104A90006004909161048552964071F4E09138066B
:104AA000F0913906908180913A0680958923808320
:104AB00010926104109260040895EF920F931F9377
:104AC000CF93DF93E80134E047FD34E1042E000C7E
:104AD000550B57FF03C0519541955109E32E022F05
:104AE000242FAE010E941127CE01DF91CF911F919B
:104AF0000F91EF9008950F931F93CF93DF93823020
:104B0000910510F482E090E0E0914606F0914706AE
:104B100030E020E0B0E0A0E0309799F421153105B5
:104B200009F44AC0281B390B24303105D8F58A8195
:104B30009B816115710589F1FB0193838283FE01DD
:104B400011C0408151810281138148175907E0F05B
:104B50004817590799F4109761F012960C93129721
:104B600013961C933296CF01DF91CF911F910F9135
:104B700008950093460610934706F4CF211531059A
:104B800051F04217530738F0A901DB019A01BD012A
:104B9000DF01F801C1CFEF01F9CF90934706809371
:104BA0004606CDCFFE01E20FF31F81939193225071
:104BB000310939832883D7CF2091440630914506A7
:104BC000232B41F4209107013091080130934506D1
:104BD00020934406209105013091060121153105ED
:104BE00041F42DB73EB74091090150910A01241BB1
:104BF000350BE0914406F0914506E217F307A0F467
:104C00002E1B3F0B2817390778F0AC014E5F5F4F22
:104C10002417350748F04E0F5F1F50934506409309
:104C20004406819391939FCFF0E0E0E09CCFCF9337
:104C3000DF930097E9F0FC01329713821282A09172
:104C40004606B0914706ED0130E020E01097A1F450
:104C500020813181820F931F2091440630914506B7
:104C60002817390709F061C0F0934506E093440620
:104C7000DF91CF910895EA01CE17DF07E8F54A8169
:104C80005B819E0141155105B1F7E901FB83EA8380
:104C900049915991C40FD51FEC17FD0761F480812C
:104CA00091810296840F951FE901998388838281FF
:104CB00093819B838A83F0E0E0E012968D919C9132
:104CC00013970097B9F52D913C911197CD0102965C
:104CD000820F931F2091440630914506281739070B
:104CE00039F6309751F51092470610924606B09368
:104CF0004506A0934406BCCFD383C2834081518133
:104D0000840F951FC817D90761F44E5F5F4F8881E4
:104D10009981480F591F518340838A819B819383D6
:104D200082832115310509F0B0CFF0934706E09357
:104D300046069ECFFD01DC01C0CF13821282D7CF81
:104D40001F93FC0199278827BC01E8941191103228
:104D5000E9F3193010F01E30C8F31B3251F01D3248
:104D600049F4689406C00E94E226610F711D811DFE
:104D7000911D119110531A30B0F33EF49095809527
:104D8000709561957F4F8F4F9F4F1F910895FB0145
:104D9000DC0105900D920020E1F70895FC010590DB
:104DA0000020E9F7809590958E0F9F1F0895BB27EF
:104DB0004A3031F4992322F4BDE2909581959F4FBA
:104DC0000C94F826592F482F372F262F660F771F60
:104DD000881F991F660F771F881F991F620F731F07
:104DE000841F951F660F771F881F991F0895BB2783
:104DF000FB015527AA27880F991FAA1FA41710F097
:104E0000A41B83955051B9F7A05DAA3308F0A95DA2
:104E1000A193009779F7B111B1931192CB010C9442
:104E20005129A9E0B0E0E7E1F7E20C94702A6A01A9
:104E3000F22EB02E102FFBE3AF2EA01608F41BE3CA
:104E40001F5F012F27E0AE014F5F5F4F0E94702868
:104E5000BC018981982F9970913009F43FC09BE281
:104E6000E1FC04C09E2D9170E0FC3AC05E2D5071B3
:104E7000E82FE87083FF46C084E0911101C083E011
:104E8000EF2DE81B8F1508F0E0E0D6018E2F20E211
:104E9000552351F1992329F0D6019C93C60101961F
:104EA0006C0196012D5F3F4FE2FE24C08EE4D601D7
:104EB0008C9391E411969C93119712968C93D9013F
:104EC0008E2F90E281111BC0E20FF32FF11D108293
:104ED0008EEF9FEF2996ECE00C948C2A9DE2C6CFD2
:104EE00090E2C4CF2D9381508111FCCFCE0ED11C06
:104EF000E0E0D0CF8EE6D6018C9391E6DBCF9D9398
:104F00008150E0CF482F447082FF3DC084E0911172
:104F100001C083E08F1510F4EF2DE81BD6018E2F12
:104F200020E2552309F1992329F0D6019C93C6016B
:104F300001966C0196012D5F3F4FE2FE1BC089E494
:104F4000D6018C938EE411968C93119786E4129679
:104F50008C93D9018E2F90E2882309F4B5CF9D93CD
:104F60008150FACF2D9381508111FCCFCE0ED11CF0
:104F7000E0E0D9CF89E6D6018C938EE611968C932A
:104F8000119786E6E4CF9B0177FF02C030E020E076
:104F9000A1E0B0E0911102C0B0E0A0E0F9013196CB
:104FA000AE0FBF1F8B2C912CBB2009F461C05401A4
:104FB000EFEFAE1ABE0AAA0DBB1DFA161B0619F0BA
:104FC00014F04F2D4A1B511188C0E3FC59C07601E3
:104FD000A42FB0E2A1114FC0C40ED11C992309F433
:104FE0005BC040E0D6011196F60190836D01552318
:104FF00009F448C0012F060F9A81582F507184FF81
:1050000003C0913309F4015010160CF047C0093069
:1050100008F008E0EEE2FE2E5B01A01AB10885015F
:105020009194819491082F3F320729F4D601FC9284
:10503000F60131966F016217730794F10217130797
:105040007CF5DB01A21BB30BAA24A394B12CAC0EFC
:10505000BD1EAA0DBB1D11968C9121503109D601A0
:10506000119628153905F4F0F60180836D01DBCF28
:10507000B12CA12CA0CFF701B1937F01A150AACFF1
:105080009111B0CFD601942F50E302C05D9391509F
:105090009111FCCFC40ED11C40E0ACCF01E0BACFDF
:1050A00080E3DBCF6217730731F4963388F49533CE
:1050B00011F4552369F0F6018083FD01842F90E2FD
:1050C000811108C0A40FB11D1C9290E080E002CFB6
:1050D00081E3F1CF91938150F3CF911183CF8ACFA8
:1050E000283008F027E03327DA01990F311D87FDBA
:1050F000916000966105710539F432602E5F3D9331
:1051000030E32A95E1F708959F3F30F0803871052C
:10511000610509F03C5F3C5F3D93913008F0806889
:10512000911DDF93CF931F930F93FF92EF92192F4F
:10513000987F9695E92F96959695E90FFF27EE5360
:10514000FF4F99273327EE24FF24A701E70105909D
:105150000894079428F4360FE71EF81E491F511DC6
:10516000660F771F881F991F0694A1F70590079473
:1051700028F4E70EF81E491F561FC11D770F881F20
:10518000991F661F0694A1F70590079428F4F80E5E
:10519000491F561FC71FD11D880F991F661F771FF4
:1051A0000694A1F70590079420F4490F561FC71FD6
:1051B000D81F990F661F771F881F0694A9F784913F
:1051C0001095177041F0D695C79557954795F79468
:1051D000E7941A95C1F7E8E6F0E068941590159108
:1051E00035916591959105907FE27395E118F10AEB
:1051F000430B560BC90BD009C0F7E10CF11E431F3E
:10520000561FC91FD01D7EF4703311F48A95E6CF66
:10521000E894015030F0080F0AF40027021708F450
:10522000202F2395022F7A3328F079E37D932A9556
:10523000E9F710C07D932A9589F6069497956795AE
:10524000379517951794E118F10A430B560BC90BC4
:10525000D00998F023957E9173957A3308F070E326
:105260007C932013B8F77E9170617D9330F0839525
:1052700071E37D9370E32A95E1F71124EF90FF909D
:105280000F911F91CF91DF91992787FD90950895F8
:1052900091110C940B2A803219F089508550C8F76F
:1052A0000895DC01FC01672F71917723E1F73297B4
:1052B00004C07C916D9370836291AE17BF07C8F3F1
:1052C0000895E89409C097FB3EF4909580957095F9
:1052D00061957F4F8F4F9F4F9923A9F0F92F96E942
:1052E000BB279395F695879577956795B795F111B7
:1052F000F8CFFAF4BB0F11F460FF1BC06F5F7F4F54
:105300008F4F9F4F16C0882311F096E911C0772365
:1053100021F09EE8872F762F05C0662371F096E86E
:10532000862F70E060E02AF09A95660F771F881F3D
:10533000DAF7880F9695879597F908950E94B12915
:105340000C94252A0E94172A38F00E941E2A20F069
:10535000952311F00C940E2A0C94142A11240C9409
:10536000592A0E94362A70F3959FC1F3950F50E099
:10537000551F629FF001729FBB27F00DB11D639F07
:10538000AA27F00DB11DAA1F649F6627B00DA11DAD
:10539000661F829F2227B00DA11D621F739FB00D53
:1053A000A11D621F839FA00D611D221F749F3327C3
:1053B000A00D611D231F849F600D211D822F762F5C
:1053C0006A2F11249F5750409AF0F1F088234AF039
:1053D000EE0FFF1FBB1F661F771F881F91505040A5
:1053E000A9F79E3F510580F00C940E2A0C94592A7F
:1053F0005F3FE4F3983ED4F3869577956795B7952C
:10540000F795E7959F5FC1F7FE2B880F911D969545
:10541000879597F9089599278827089597F99F67A1
:1054200080E870E060E008959FEF80EC089500242C
:105430000A941616170618060906089500240A94F9
:1054400012161306140605060895092E0394000C7F
:1054500011F4882352F0BB0F40F4BF2B11F460FF0E
:1054600004C06F5F7F4F8F4F9F4F089557FD905837
:10547000440F551F59F05F3F71F04795880F97FB18
:10548000991F61F09F3F79F08795089512161306D2
:105490001406551FF2CF4695F1DF08C01616170601
:1054A0001806991FF1CF8695710561050894089536
:1054B000E894BB2766277727CB0197F908950E94C8
:1054C000A12AA59F900DB49F900DA49F800D911DC2
:1054D000112408952F923F924F925F926F927F9284
:1054E0008F929F92AF92BF92CF92DF92EF92FF92F4
:1054F0000F931F93CF93DF93CDB7DEB7CA1BDB0BA0
:105500000FB6F894DEBF0FBECDBF09942A88398844
:1055100048885F846E847D848C849B84AA84B9844B
:10552000C884DF80EE80FD800C811B81AA81B98157
:10553000CE0FD11D0FB6F894DEBF0FBECDBFED016B
:105540000895A29FB001B39FC001A39F700D811D5C
:105550001124911DB29F700D811D1124911D08957C
:105560005058BB27AA270E94C82A0C94252A0E94BB
:10557000172A38F00E941E2A20F039F49F3F19F4B0
:1055800026F40C94142A0EF4E095E7FB0C940E2AF2
:10559000E92F0E94362A58F3BA1762077307840767
:1055A000950720F079F4A6F50C94582A0EF4E095AE
:1055B0000B2EBA2FA02D0B01B90190010C01CA01CD
:1055C000A0011124FF27591B99F0593F50F4503E78
:1055D00068F11A16F040A22F232F342F4427585F6A
:1055E000F3CF469537952795A795F0405395C9F782
:1055F0007EF41F16BA0B620B730B840BBAF091503A
:10560000A1F0FF0FBB1F661F771F881FC2F70EC0D8
:10561000BA0F621F731F841F48F4879577956795AB
:10562000B795F7959E3F08F0B0CF9395880F08F097
:105630009927EE0F9795879508950E94312B0C942A
:10564000252A0E941E2A58F00E94172A40F029F4A9
:105650005F3F29F00C940E2A51110C94592A0C9496
:10566000142A0E94362A68F39923B1F3552391F343
:10567000951B550BBB27AA2762177307840738F0C1
:105680009F5F5F4F220F331F441FAA1FA9F335D01E
:105690000E2E3AF0E0E832D091505040E695001CD2
:1056A000CAF72BD0FE2F29D0660F771F881FBB1F8C
:1056B000261737074807AB07B0E809F0BB0B802D6A
:1056C000BF01FF2793585F4F3AF09E3F510578F096
:1056D0000C940E2A0C94592A5F3FE4F3983ED4F3BD
:1056E000869577956795B795F7959F5FC9F7880F6A
:1056F000911D9695879597F90895E1E0660F771FBC
:10570000881FBB1F621773078407BA0720F0621B4C
:10571000730B840BBA0BEE1F88F7E09508950E9477
:10572000962B6894B1110C94592A08950E943E2A30
:1057300088F09F5798F0B92F9927B751B0F0E1F052
:10574000660F771F881F991F1AF0BA95C9F714C002
:10575000B13091F00E94582AB1E008950C94582A73
:10576000672F782F8827B85F39F0B93FCCF386953B
:1057700077956795B395D9F73EF490958095709598
:1057800061957F4F8F4F9F4F0895FA01DC01AA0F5B
:10579000BB1F9B01AC01BF5728F4222733274427A6
:1057A000507820C0B75190F4AB2F00244695379520
:1057B0002795011CA395D2F3002071F0220F331F0F
:1057C000441FB395DAF30ED00C94B02A6130710502
:1057D000A0E88A07B94630F49B01AC016627772719
:1057E00088279078309621F0208331834283538339
:1057F0000895DB018F939F930E945F2ABF91AF9121
:10580000A29F800D911DA39F900DB29F900D11241A
:10581000089597FB072E16F4009407D077FD09D062
:105820000E946C2C07FC05D03EF4909581959F4F0B
:105830000895709561957F4F0895A1E21A2EAA1BD5
:10584000BB1BFD010DC0AA1FBB1FEE1FFF1FA21730
:10585000B307E407F50720F0A21BB30BE40BF50B2D
:10586000661F771F881F991F1A9469F760957095B6
:10587000809590959B01AC01BD01CF010895052E47
:1058800097FB1EF400940E94562C57FD07D00E94EF
:105890001D2C07FC03D04EF40C94562C50954095CB
:1058A000309521953F4F4F4F5F4F089590958095CC
:1058B000709561957F4F8F4F9F4F0895EE0FFF1F9B
:1058C0000590F491E02D0994B7FF0C945F2A0E9493
:1058D0005F2A821B930B0895AA1BBB1B51E107C0D3
:1058E000AA1FBB1FA617B70710F0A61BB70B881F70
:1058F000991F5A95A9F780959095BC01CD010895FF
:10590000B0E0A0E0E6E8FCE20C946C2A8C01009781
:1059100051F4CB010E947B258C01C801CDB7DEB7C5
:10592000E0E10C94882AFC01E60FF71F9C0122504D
:105930003109E217F30708F49DC0D901CD91DC913C
:105940001197C617D70798F0C530D10530F3CE01AF
:1059500004978617970708F3C61BD70B2297C193A6
:10596000D1936D937C93CF010E941726D6CF5B0114
:10597000AC1ABD0A4C018C0E9D1EA0914606B0913A
:105980004706512C412CF12CE12C109731F58091D8
:105990004406909145068815990509F05CC04616A5
:1059A000570608F058C080910501909106010097B4
:1059B00041F48DB79EB74091090150910A01841BB3
:1059C000950BE817F90708F055C0F0934506E093EA
:1059D0004406F90171836083A0CF8D919C9111974A
:1059E00012966C90129713967C901397A815B90590
:1059F00059F56C0142E0C40ED11CCA14DB0420F13D
:105A0000AC014A195B09DA011296159780F062829F
:105A1000738251834083D9016D937C93E114F10427
:105A200071F0D7011396FC93EE93129776CF2296DE
:105A30008C0F9D1FF90191838083F301EFCFF093C9
:105A40004706E093460669CF4816590608F42C012C
:105A50007D01D3019ACFCB010E947B257C01009769
:105A600049F0AE01B8010E943D2DC8010E941726E1
:105A7000870153CF10E000E050CFFB01DC0102C0F2
:105A800001900D9241505040D8F70895FB01DC0180
:105A90008D91019080190110D9F3990B0895FB01A4
:105AA000DC0101900D920020E1F70895FB01DC017B
:105AB0004150504048F001900D920020C9F701C0BC
:105AC0001D9241505040E0F70895FB01519155233C
:105AD000A9F0BF01DC014D9145174111E1F759F4DF
